{
  "_format": "hh-sol-artifact-1",
  "contractName": "Domains",
  "sourceName": "contracts/Domain.sol",
  "abi": [
    {
      "inputs": [
        {
          "internalType": "string",
          "name": "_tld",
          "type": "string"
        }
      ],
      "stateMutability": "payable",
      "type": "constructor"
    },
    {
      "inputs": [],
      "name": "AlreadyRegistered",
      "type": "error"
    },
    {
      "inputs": [
        {
          "internalType": "string",
          "name": "name",
          "type": "string"
        }
      ],
      "name": "InvalidName",
      "type": "error"
    },
    {
      "inputs": [],
      "name": "Unauthorized",
      "type": "error"
    },
    {
      "anonymous": false,
      "inputs": [
        {
          "indexed": true,
          "internalType": "address",
          "name": "owner",
          "type": "address"
        },
        {
          "indexed": true,
          "internalType": "address",
          "name": "approved",
          "type": "address"
        },
        {
          "indexed": true,
          "internalType": "uint256",
          "name": "tokenId",
          "type": "uint256"
        }
      ],
      "name": "Approval",
      "type": "event"
    },
    {
      "anonymous": false,
      "inputs": [
        {
          "indexed": true,
          "internalType": "address",
          "name": "owner",
          "type": "address"
        },
        {
          "indexed": true,
          "internalType": "address",
          "name": "operator",
          "type": "address"
        },
        {
          "indexed": false,
          "internalType": "bool",
          "name": "approved",
          "type": "bool"
        }
      ],
      "name": "ApprovalForAll",
      "type": "event"
    },
    {
      "anonymous": false,
      "inputs": [
        {
          "indexed": true,
          "internalType": "address",
          "name": "from",
          "type": "address"
        },
        {
          "indexed": true,
          "internalType": "address",
          "name": "to",
          "type": "address"
        },
        {
          "indexed": true,
          "internalType": "uint256",
          "name": "tokenId",
          "type": "uint256"
        }
      ],
      "name": "Transfer",
      "type": "event"
    },
    {
      "inputs": [
        {
          "internalType": "address",
          "name": "to",
          "type": "address"
        },
        {
          "internalType": "uint256",
          "name": "tokenId",
          "type": "uint256"
        }
      ],
      "name": "approve",
      "outputs": [],
      "stateMutability": "nonpayable",
      "type": "function"
    },
    {
      "inputs": [
        {
          "internalType": "address",
          "name": "owner",
          "type": "address"
        }
      ],
      "name": "balanceOf",
      "outputs": [
        {
          "internalType": "uint256",
          "name": "",
          "type": "uint256"
        }
      ],
      "stateMutability": "view",
      "type": "function"
    },
    {
      "inputs": [
        {
          "internalType": "string",
          "name": "",
          "type": "string"
        }
      ],
      "name": "domains",
      "outputs": [
        {
          "internalType": "address",
          "name": "",
          "type": "address"
        }
      ],
      "stateMutability": "view",
      "type": "function"
    },
    {
      "inputs": [
        {
          "internalType": "string",
          "name": "name",
          "type": "string"
        }
      ],
      "name": "getAddress",
      "outputs": [
        {
          "internalType": "address",
          "name": "",
          "type": "address"
        }
      ],
      "stateMutability": "view",
      "type": "function"
    },
    {
      "inputs": [],
      "name": "getAllNames",
      "outputs": [
        {
          "internalType": "string[]",
          "name": "",
          "type": "string[]"
        }
      ],
      "stateMutability": "view",
      "type": "function"
    },
    {
      "inputs": [
        {
          "internalType": "uint256",
          "name": "tokenId",
          "type": "uint256"
        }
      ],
      "name": "getApproved",
      "outputs": [
        {
          "internalType": "address",
          "name": "",
          "type": "address"
        }
      ],
      "stateMutability": "view",
      "type": "function"
    },
    {
      "inputs": [],
      "name": "getCounter",
      "outputs": [
        {
          "internalType": "uint256",
          "name": "",
          "type": "uint256"
        }
      ],
      "stateMutability": "view",
      "type": "function"
    },
    {
      "inputs": [
        {
          "internalType": "string",
          "name": "name",
          "type": "string"
        }
      ],
      "name": "getRecord",
      "outputs": [
        {
          "internalType": "string",
          "name": "",
          "type": "string"
        }
      ],
      "stateMutability": "view",
      "type": "function"
    },
    {
      "inputs": [
        {
          "internalType": "address",
          "name": "owner",
          "type": "address"
        },
        {
          "internalType": "address",
          "name": "operator",
          "type": "address"
        }
      ],
      "name": "isApprovedForAll",
      "outputs": [
        {
          "internalType": "bool",
          "name": "",
          "type": "bool"
        }
      ],
      "stateMutability": "view",
      "type": "function"
    },
    {
      "inputs": [],
      "name": "isOwner",
      "outputs": [
        {
          "internalType": "bool",
          "name": "",
          "type": "bool"
        }
      ],
      "stateMutability": "view",
      "type": "function"
    },
    {
      "inputs": [],
      "name": "name",
      "outputs": [
        {
          "internalType": "string",
          "name": "",
          "type": "string"
        }
      ],
      "stateMutability": "view",
      "type": "function"
    },
    {
      "inputs": [
        {
          "internalType": "uint256",
          "name": "",
          "type": "uint256"
        }
      ],
      "name": "names",
      "outputs": [
        {
          "internalType": "string",
          "name": "",
          "type": "string"
        }
      ],
      "stateMutability": "view",
      "type": "function"
    },
    {
      "inputs": [],
      "name": "owner",
      "outputs": [
        {
          "internalType": "address payable",
          "name": "",
          "type": "address"
        }
      ],
      "stateMutability": "view",
      "type": "function"
    },
    {
      "inputs": [
        {
          "internalType": "uint256",
          "name": "tokenId",
          "type": "uint256"
        }
      ],
      "name": "ownerOf",
      "outputs": [
        {
          "internalType": "address",
          "name": "",
          "type": "address"
        }
      ],
      "stateMutability": "view",
      "type": "function"
    },
    {
      "inputs": [
        {
          "internalType": "string",
          "name": "name",
          "type": "string"
        }
      ],
      "name": "price",
      "outputs": [
        {
          "internalType": "uint256",
          "name": "",
          "type": "uint256"
        }
      ],
      "stateMutability": "pure",
      "type": "function"
    },
    {
      "inputs": [
        {
          "internalType": "string",
          "name": "",
          "type": "string"
        }
      ],
      "name": "records",
      "outputs": [
        {
          "internalType": "string",
          "name": "",
          "type": "string"
        }
      ],
      "stateMutability": "view",
      "type": "function"
    },
    {
      "inputs": [
        {
          "internalType": "string",
          "name": "name",
          "type": "string"
        }
      ],
      "name": "register",
      "outputs": [],
      "stateMutability": "payable",
      "type": "function"
    },
    {
      "inputs": [
        {
          "internalType": "address",
          "name": "from",
          "type": "address"
        },
        {
          "internalType": "address",
          "name": "to",
          "type": "address"
        },
        {
          "internalType": "uint256",
          "name": "tokenId",
          "type": "uint256"
        }
      ],
      "name": "safeTransferFrom",
      "outputs": [],
      "stateMutability": "nonpayable",
      "type": "function"
    },
    {
      "inputs": [
        {
          "internalType": "address",
          "name": "from",
          "type": "address"
        },
        {
          "internalType": "address",
          "name": "to",
          "type": "address"
        },
        {
          "internalType": "uint256",
          "name": "tokenId",
          "type": "uint256"
        },
        {
          "internalType": "bytes",
          "name": "_data",
          "type": "bytes"
        }
      ],
      "name": "safeTransferFrom",
      "outputs": [],
      "stateMutability": "nonpayable",
      "type": "function"
    },
    {
      "inputs": [
        {
          "internalType": "address",
          "name": "operator",
          "type": "address"
        },
        {
          "internalType": "bool",
          "name": "approved",
          "type": "bool"
        }
      ],
      "name": "setApprovalForAll",
      "outputs": [],
      "stateMutability": "nonpayable",
      "type": "function"
    },
    {
      "inputs": [
        {
          "internalType": "string",
          "name": "name",
          "type": "string"
        },
        {
          "internalType": "string",
          "name": "record",
          "type": "string"
        }
      ],
      "name": "setRecord",
      "outputs": [],
      "stateMutability": "nonpayable",
      "type": "function"
    },
    {
      "inputs": [
        {
          "internalType": "bytes4",
          "name": "interfaceId",
          "type": "bytes4"
        }
      ],
      "name": "supportsInterface",
      "outputs": [
        {
          "internalType": "bool",
          "name": "",
          "type": "bool"
        }
      ],
      "stateMutability": "view",
      "type": "function"
    },
    {
      "inputs": [],
      "name": "symbol",
      "outputs": [
        {
          "internalType": "string",
          "name": "",
          "type": "string"
        }
      ],
      "stateMutability": "view",
      "type": "function"
    },
    {
      "inputs": [],
      "name": "tld",
      "outputs": [
        {
          "internalType": "string",
          "name": "",
          "type": "string"
        }
      ],
      "stateMutability": "view",
      "type": "function"
    },
    {
      "inputs": [
        {
          "internalType": "uint256",
          "name": "tokenId",
          "type": "uint256"
        }
      ],
      "name": "tokenURI",
      "outputs": [
        {
          "internalType": "string",
          "name": "",
          "type": "string"
        }
      ],
      "stateMutability": "view",
      "type": "function"
    },
    {
      "inputs": [
        {
          "internalType": "address",
          "name": "from",
          "type": "address"
        },
        {
          "internalType": "address",
          "name": "to",
          "type": "address"
        },
        {
          "internalType": "uint256",
          "name": "tokenId",
          "type": "uint256"
        }
      ],
      "name": "transferFrom",
      "outputs": [],
      "stateMutability": "nonpayable",
      "type": "function"
    },
    {
      "inputs": [
        {
          "internalType": "string",
          "name": "name",
          "type": "string"
        }
      ],
      "name": "valid",
      "outputs": [
        {
          "internalType": "bool",
          "name": "",
          "type": "bool"
        }
      ],
      "stateMutability": "pure",
      "type": "function"
    },
    {
      "inputs": [],
      "name": "withdraw",
      "outputs": [],
      "stateMutability": "nonpayable",
      "type": "function"
    }
  ],
  "bytecode": "0x6080604052604051806108a00160405280610879815260200162004bf36108799139600a908051906020019062000038929190620001ad565b506040518060400160405280600d81526020017f3c2f746578743e3c2f7376673e00000000000000000000000000000000000000815250600b908051906020019062000086929190620001ad565b506040516200546c3803806200546c8339818101604052810190620000ac9190620003fa565b6040518060400160405280601081526020017f4c7576204e616d652053657276696365000000000000000000000000000000008152506040518060400160405280600381526020017f4c55560000000000000000000000000000000000000000000000000000000000815250816000908051906020019062000130929190620001ad565b50806001908051906020019062000149929190620001ad565b50505033600760006101000a81548173ffffffffffffffffffffffffffffffffffffffff021916908373ffffffffffffffffffffffffffffffffffffffff1602179055508060099080519060200190620001a5929190620001ad565b5050620004b0565b828054620001bb906200047a565b90600052602060002090601f016020900481019282620001df57600085556200022b565b82601f10620001fa57805160ff19168380011785556200022b565b828001600101855582156200022b579182015b828111156200022a5782518255916020019190600101906200020d565b5b5090506200023a91906200023e565b5090565b5b80821115620002595760008160009055506001016200023f565b5090565b6000604051905090565b600080fd5b600080fd5b600080fd5b600080fd5b6000601f19601f8301169050919050565b7f4e487b7100000000000000000000000000000000000000000000000000000000600052604160045260246000fd5b620002c6826200027b565b810181811067ffffffffffffffff82111715620002e857620002e76200028c565b5b80604052505050565b6000620002fd6200025d565b90506200030b8282620002bb565b919050565b600067ffffffffffffffff8211156200032e576200032d6200028c565b5b62000339826200027b565b9050602081019050919050565b60005b838110156200036657808201518184015260208101905062000349565b8381111562000376576000848401525b50505050565b6000620003936200038d8462000310565b620002f1565b905082815260208101848484011115620003b257620003b162000276565b5b620003bf84828562000346565b509392505050565b600082601f830112620003df57620003de62000271565b5b8151620003f18482602086016200037c565b91505092915050565b60006020828403121562000413576200041262000267565b5b600082015167ffffffffffffffff8111156200043457620004336200026c565b5b6200044284828501620003c7565b91505092915050565b7f4e487b7100000000000000000000000000000000000000000000000000000000600052602260045260246000fd5b600060028204905060018216806200049357607f821691505b60208210811415620004aa57620004a96200044b565b5b50919050565b61473380620004c06000396000f3fe6080604052600436106101b75760003560e01c80638ada066e116100ec578063bf40fac11161008a578063e985e9c511610064578063e985e9c51461066a578063f2c298be146106a7578063fb825e5f146106c3578063fe2c6198146106ee576101b7565b8063bf40fac1146105c7578063c1880a9814610604578063c87b56dd1461062d576101b7565b806395d89b41116100c657806395d89b411461050d5780639791c09714610538578063a22cb46514610575578063b88d4fde1461059e576101b7565b80638ada066e1461048c5780638da5cb5b146104b75780638f32d59b146104e2576101b7565b80632d551432116101595780634622ab03116101335780634622ab0314610398578063541e771d146103d55780636352211e1461041257806370a082311461044f576101b7565b80632d5514321461032d5780633ccfd60b1461035857806342842e0e1461036f576101b7565b8063095ea7b311610195578063095ea7b31461026157806311dd88451461028a57806323b872dd146102c757806326449235146102f0576101b7565b806301ffc9a7146101bc57806306fdde03146101f9578063081812fc14610224575b600080fd5b3480156101c857600080fd5b506101e360048036038101906101de9190612c40565b61072b565b6040516101f09190612c88565b60405180910390f35b34801561020557600080fd5b5061020e61080d565b60405161021b9190612d3c565b60405180910390f35b34801561023057600080fd5b5061024b60048036038101906102469190612d94565b61089f565b6040516102589190612e02565b60405180910390f35b34801561026d57600080fd5b5061028860048036038101906102839190612e49565b610924565b005b34801561029657600080fd5b506102b160048036038101906102ac9190612eee565b610a3c565b6040516102be9190612d3c565b60405180910390f35b3480156102d357600080fd5b506102ee60048036038101906102e99190612f3b565b610aef565b005b3480156102fc57600080fd5b50610317600480360381019061031291906130be565b610b4f565b6040516103249190612e02565b60405180910390f35b34801561033957600080fd5b50610342610b98565b60405161034f9190612d3c565b60405180910390f35b34801561036457600080fd5b5061036d610c26565b005b34801561037b57600080fd5b5061039660048036038101906103919190612f3b565b610cec565b005b3480156103a457600080fd5b506103bf60048036038101906103ba9190612d94565b610d0c565b6040516103cc9190612d3c565b60405180910390f35b3480156103e157600080fd5b506103fc60048036038101906103f791906130be565b610dac565b6040516104099190612d3c565b60405180910390f35b34801561041e57600080fd5b5061043960048036038101906104349190612d94565b610e62565b6040516104469190612e02565b60405180910390f35b34801561045b57600080fd5b5061047660048036038101906104719190613107565b610f14565b6040516104839190613143565b60405180910390f35b34801561049857600080fd5b506104a1610fcc565b6040516104ae9190613143565b60405180910390f35b3480156104c357600080fd5b506104cc610fdd565b6040516104d9919061317f565b60405180910390f35b3480156104ee57600080fd5b506104f7611003565b6040516105049190612c88565b60405180910390f35b34801561051957600080fd5b5061052261105b565b60405161052f9190612d3c565b60405180910390f35b34801561054457600080fd5b5061055f600480360381019061055a9190612eee565b6110ed565b60405161056c9190612c88565b60405180910390f35b34801561058157600080fd5b5061059c600480360381019061059791906131c6565b6111a1565b005b3480156105aa57600080fd5b506105c560048036038101906105c091906132a7565b6111b7565b005b3480156105d357600080fd5b506105ee60048036038101906105e99190612eee565b611219565b6040516105fb9190612e02565b60405180910390f35b34801561061057600080fd5b5061062b6004803603810190610626919061332a565b611264565b005b34801561063957600080fd5b50610654600480360381019061064f9190612d94565b61133f565b6040516106619190612d3c565b60405180910390f35b34801561067657600080fd5b50610691600480360381019061068c91906133ab565b611491565b60405161069e9190612c88565b60405180910390f35b6106c160048036038101906106bc9190612eee565b611525565b005b3480156106cf57600080fd5b506106d8611830565b6040516106e591906134f7565b60405180910390f35b3480156106fa57600080fd5b5061071560048036038101906107109190612eee565b611976565b6040516107229190613143565b60405180910390f35b60007f80ac58cd000000000000000000000000000000000000000000000000000000007bffffffffffffffffffffffffffffffffffffffffffffffffffffffff1916827bffffffffffffffffffffffffffffffffffffffffffffffffffffffff191614806107f657507f5b5e139f000000000000000000000000000000000000000000000000000000007bffffffffffffffffffffffffffffffffffffffffffffffffffffffff1916827bffffffffffffffffffffffffffffffffffffffffffffffffffffffff1916145b80610806575061080582611a19565b5b9050919050565b60606000805461081c90613548565b80601f016020809104026020016040519081016040528092919081815260200182805461084890613548565b80156108955780601f1061086a57610100808354040283529160200191610895565b820191906000526020600020905b81548152906001019060200180831161087857829003601f168201915b5050505050905090565b60006108aa82611a83565b6108e9576040517f08c379a00000000000000000000000000000000000000000000000000000000081526004016108e0906135ec565b60405180910390fd5b6004600083815260200190815260200160002060009054906101000a900473ffffffffffffffffffffffffffffffffffffffff169050919050565b600061092f82610e62565b90508073ffffffffffffffffffffffffffffffffffffffff168373ffffffffffffffffffffffffffffffffffffffff1614156109a0576040517f08c379a00000000000000000000000000000000000000000000000000000000081526004016109979061367e565b60405180910390fd5b8073ffffffffffffffffffffffffffffffffffffffff166109bf611aef565b73ffffffffffffffffffffffffffffffffffffffff1614806109ee57506109ed816109e8611aef565b611491565b5b610a2d576040517f08c379a0000000000000000000000000000000000000000000000000000000008152600401610a2490613710565b60405180910390fd5b610a378383611af7565b505050565b6060600d8383604051610a50929190613760565b90815260200160405180910390208054610a6990613548565b80601f0160208091040260200160405190810160405280929190818152602001828054610a9590613548565b8015610ae25780601f10610ab757610100808354040283529160200191610ae2565b820191906000526020600020905b815481529060010190602001808311610ac557829003601f168201915b5050505050905092915050565b610b00610afa611aef565b82611bb0565b610b3f576040517f08c379a0000000000000000000000000000000000000000000000000000000008152600401610b36906137eb565b60405180910390fd5b610b4a838383611c8e565b505050565b600c818051602081018201805184825260208301602085012081835280955050505050506000915054906101000a900473ffffffffffffffffffffffffffffffffffffffff1681565b60098054610ba590613548565b80601f0160208091040260200160405190810160405280929190818152602001828054610bd190613548565b8015610c1e5780601f10610bf357610100808354040283529160200191610c1e565b820191906000526020600020905b815481529060010190602001808311610c0157829003601f168201915b505050505081565b610c2e611003565b610c3757600080fd5b600047905060003373ffffffffffffffffffffffffffffffffffffffff1682604051610c629061383c565b60006040518083038185875af1925050503d8060008114610c9f576040519150601f19603f3d011682016040523d82523d6000602084013e610ca4565b606091505b5050905080610ce8576040517f08c379a0000000000000000000000000000000000000000000000000000000008152600401610cdf9061389d565b60405180910390fd5b5050565b610d07838383604051806020016040528060008152506111b7565b505050565b600e6020528060005260406000206000915090508054610d2b90613548565b80601f0160208091040260200160405190810160405280929190818152602001828054610d5790613548565b8015610da45780601f10610d7957610100808354040283529160200191610da4565b820191906000526020600020905b815481529060010190602001808311610d8757829003601f168201915b505050505081565b600d818051602081018201805184825260208301602085012081835280955050505050506000915090508054610de190613548565b80601f0160208091040260200160405190810160405280929190818152602001828054610e0d90613548565b8015610e5a5780601f10610e2f57610100808354040283529160200191610e5a565b820191906000526020600020905b815481529060010190602001808311610e3d57829003601f168201915b505050505081565b6000806002600084815260200190815260200160002060009054906101000a900473ffffffffffffffffffffffffffffffffffffffff169050600073ffffffffffffffffffffffffffffffffffffffff168173ffffffffffffffffffffffffffffffffffffffff161415610f0b576040517f08c379a0000000000000000000000000000000000000000000000000000000008152600401610f029061392f565b60405180910390fd5b80915050919050565b60008073ffffffffffffffffffffffffffffffffffffffff168273ffffffffffffffffffffffffffffffffffffffff161415610f85576040517f08c379a0000000000000000000000000000000000000000000000000000000008152600401610f7c906139c1565b60405180910390fd5b600360008373ffffffffffffffffffffffffffffffffffffffff1673ffffffffffffffffffffffffffffffffffffffff168152602001908152602001600020549050919050565b6000610fd86008611ef5565b905090565b600760009054906101000a900473ffffffffffffffffffffffffffffffffffffffff1681565b6000600760009054906101000a900473ffffffffffffffffffffffffffffffffffffffff1673ffffffffffffffffffffffffffffffffffffffff163373ffffffffffffffffffffffffffffffffffffffff1614905090565b60606001805461106a90613548565b80601f016020809104026020016040519081016040528092919081815260200182805461109690613548565b80156110e35780601f106110b8576101008083540402835291602001916110e3565b820191906000526020600020905b8154815290600101906020018083116110c657829003601f168201915b5050505050905090565b6000600361113e84848080601f016020809104026020016040519081016040528093929190818152602001838380828437600081840152601f19601f82011690508083019250505050505050611f03565b101580156111995750600a61119684848080601f016020809104026020016040519081016040528093929190818152602001838380828437600081840152601f19601f82011690508083019250505050505050611f03565b11155b905092915050565b6111b36111ac611aef565b83836120b8565b5050565b6111c86111c2611aef565b83611bb0565b611207576040517f08c379a00000000000000000000000000000000000000000000000000000000081526004016111fe906137eb565b60405180910390fd5b61121384848484612225565b50505050565b6000600c838360405161122d929190613760565b908152602001604051809103902060009054906101000a900473ffffffffffffffffffffffffffffffffffffffff16905092915050565b600c8484604051611276929190613760565b908152602001604051809103902060009054906101000a900473ffffffffffffffffffffffffffffffffffffffff1673ffffffffffffffffffffffffffffffffffffffff163373ffffffffffffffffffffffffffffffffffffffff1614611309576040517f82b4290000000000000000000000000000000000000000000000000000000000815260040160405180910390fd5b8181600d868660405161131d929190613760565b90815260200160405180910390209190611338929190612aab565b5050505050565b606061134a82611a83565b611389576040517f08c379a000000000000000000000000000000000000000000000000000000000815260040161138090613a53565b60405180910390fd5b60006006600084815260200190815260200160002080546113a990613548565b80601f01602080910402602001604051908101604052809291908181526020018280546113d590613548565b80156114225780601f106113f757610100808354040283529160200191611422565b820191906000526020600020905b81548152906001019060200180831161140557829003601f168201915b505050505090506000611433612281565b905060008151141561144957819250505061148c565b60008251111561147e578082604051602001611466929190613aa4565b6040516020818303038152906040529250505061148c565b61148784612298565b925050505b919050565b6000600560008473ffffffffffffffffffffffffffffffffffffffff1673ffffffffffffffffffffffffffffffffffffffff16815260200190815260200160002060008373ffffffffffffffffffffffffffffffffffffffff1673ffffffffffffffffffffffffffffffffffffffff16815260200190815260200160002060009054906101000a900460ff16905092915050565b600073ffffffffffffffffffffffffffffffffffffffff16600c838360405161154f929190613760565b908152602001604051809103902060009054906101000a900473ffffffffffffffffffffffffffffffffffffffff1673ffffffffffffffffffffffffffffffffffffffff16146115cb576040517f3a81d6fc00000000000000000000000000000000000000000000000000000000815260040160405180910390fd5b6115d582826110ed565b6116185781816040517f7f19f48d00000000000000000000000000000000000000000000000000000000815260040161160f929190613af5565b60405180910390fd5b60006116248383611976565b905080341015611669576040517f08c379a000000000000000000000000000000000000000000000000000000000815260040161166090613b65565b60405180910390fd5b60008383600960405160200161168193929190613c65565b60405160208183030381529060405290506000600a82600b6040516020016116ab93929190613c96565b604051602081830303815290604052905060006116c86008611ef5565b9050600061171987878080601f016020809104026020016040519081016040528093929190818152602001838380828437600081840152601f19601f82011690508083019250505050505050611f03565b905060006117268261233f565b9050600061175e86611737876124a0565b8460405160200161174a93929190613e43565b6040516020818303038152906040526124a0565b90506000816040516020016117739190613eec565b604051602081830303815290604052905061178e3386612619565b6117988582612637565b33600c8b8b6040516117ab929190613760565b908152602001604051809103902060006101000a81548173ffffffffffffffffffffffffffffffffffffffff021916908373ffffffffffffffffffffffffffffffffffffffff1602179055508989600e60008881526020019081526020016000209190611819929190612aab565b5061182460086126ab565b50505050505050505050565b6060600061183e6008611ef5565b67ffffffffffffffff81111561185757611856612f93565b5b60405190808252806020026020018201604052801561188a57816020015b60608152602001906001900390816118755790505b50905060005b61189a6008611ef5565b81101561196e57600e600082815260200190815260200160002080546118bf90613548565b80601f01602080910402602001604051908101604052809291908181526020018280546118eb90613548565b80156119385780601f1061190d57610100808354040283529160200191611938565b820191906000526020600020905b81548152906001019060200180831161191b57829003601f168201915b50505050508282815181106119505761194f613f0e565b5b6020026020010181905250808061196690613f6c565b915050611890565b508091505090565b6000806119c684848080601f016020809104026020016040519081016040528093929190818152602001838380828437600081840152601f19601f82011690508083019250505050505050611f03565b9050600081116119d557600080fd5b60038114156119ee5766b1a2bc2ec50000915050611a13565b6004811415611a0757666a94d74f430000915050611a13565b662386f26fc100009150505b92915050565b60007f01ffc9a7000000000000000000000000000000000000000000000000000000007bffffffffffffffffffffffffffffffffffffffffffffffffffffffff1916827bffffffffffffffffffffffffffffffffffffffffffffffffffffffff1916149050919050565b60008073ffffffffffffffffffffffffffffffffffffffff166002600084815260200190815260200160002060009054906101000a900473ffffffffffffffffffffffffffffffffffffffff1673ffffffffffffffffffffffffffffffffffffffff1614159050919050565b600033905090565b816004600083815260200190815260200160002060006101000a81548173ffffffffffffffffffffffffffffffffffffffff021916908373ffffffffffffffffffffffffffffffffffffffff160217905550808273ffffffffffffffffffffffffffffffffffffffff16611b6a83610e62565b73ffffffffffffffffffffffffffffffffffffffff167f8c5be1e5ebec7d5bd14f71427d1e84f3dd0314c0f7b2291e5b200ac8c7c3b92560405160405180910390a45050565b6000611bbb82611a83565b611bfa576040517f08c379a0000000000000000000000000000000000000000000000000000000008152600401611bf190614027565b60405180910390fd5b6000611c0583610e62565b90508073ffffffffffffffffffffffffffffffffffffffff168473ffffffffffffffffffffffffffffffffffffffff161480611c7457508373ffffffffffffffffffffffffffffffffffffffff16611c5c8461089f565b73ffffffffffffffffffffffffffffffffffffffff16145b80611c855750611c848185611491565b5b91505092915050565b8273ffffffffffffffffffffffffffffffffffffffff16611cae82610e62565b73ffffffffffffffffffffffffffffffffffffffff1614611d04576040517f08c379a0000000000000000000000000000000000000000000000000000000008152600401611cfb906140b9565b60405180910390fd5b600073ffffffffffffffffffffffffffffffffffffffff168273ffffffffffffffffffffffffffffffffffffffff161415611d74576040517f08c379a0000000000000000000000000000000000000000000000000000000008152600401611d6b9061414b565b60405180910390fd5b611d7f8383836126c1565b611d8a600082611af7565b6001600360008573ffffffffffffffffffffffffffffffffffffffff1673ffffffffffffffffffffffffffffffffffffffff1681526020019081526020016000206000828254611dda919061416b565b925050819055506001600360008473ffffffffffffffffffffffffffffffffffffffff1673ffffffffffffffffffffffffffffffffffffffff1681526020019081526020016000206000828254611e31919061419f565b92505081905550816002600083815260200190815260200160002060006101000a81548173ffffffffffffffffffffffffffffffffffffffff021916908373ffffffffffffffffffffffffffffffffffffffff160217905550808273ffffffffffffffffffffffffffffffffffffffff168473ffffffffffffffffffffffffffffffffffffffff167fddf252ad1be2c89b69c2b068fc378daa952ba7f163c4a11628f55a4df523b3ef60405160405180910390a4611ef08383836126c6565b505050565b600081600001549050919050565b60008060008084519050600092505b808210156120ad576000858381518110611f2f57611f2e613f0e565b5b602001015160f81c60f81b9050608060f81b817effffffffffffffffffffffffffffffffffffffffffffffffffffffffffffff19161015611f7e57600183611f77919061419f565b9250612099565b60e060f81b817effffffffffffffffffffffffffffffffffffffffffffffffffffffffffffff19161015611fc057600283611fb9919061419f565b9250612098565b60f060f81b817effffffffffffffffffffffffffffffffffffffffffffffffffffffffffffff1916101561200257600383611ffb919061419f565b9250612097565b60f8801b817effffffffffffffffffffffffffffffffffffffffffffffffffffffffffffff191610156120435760048361203c919061419f565b9250612096565b60fc60f81b817effffffffffffffffffffffffffffffffffffffffffffffffffffffffffffff191610156120855760058361207e919061419f565b9250612095565b600683612092919061419f565b92505b5b5b5b5b5082806120a590613f6c565b935050611f12565b829350505050919050565b8173ffffffffffffffffffffffffffffffffffffffff168373ffffffffffffffffffffffffffffffffffffffff161415612127576040517f08c379a000000000000000000000000000000000000000000000000000000000815260040161211e90614241565b60405180910390fd5b80600560008573ffffffffffffffffffffffffffffffffffffffff1673ffffffffffffffffffffffffffffffffffffffff16815260200190815260200160002060008473ffffffffffffffffffffffffffffffffffffffff1673ffffffffffffffffffffffffffffffffffffffff16815260200190815260200160002060006101000a81548160ff0219169083151502179055508173ffffffffffffffffffffffffffffffffffffffff168373ffffffffffffffffffffffffffffffffffffffff167f17307eab39ab6107e8899845ad3d59bd9653f200f220920489ca2b5937696c31836040516122189190612c88565b60405180910390a3505050565b612230848484611c8e565b61223c848484846126cb565b61227b576040517f08c379a0000000000000000000000000000000000000000000000000000000008152600401612272906142d3565b60405180910390fd5b50505050565b606060405180602001604052806000815250905090565b60606122a382611a83565b6122e2576040517f08c379a00000000000000000000000000000000000000000000000000000000081526004016122d990614365565b60405180910390fd5b60006122ec612281565b9050600081511161230c5760405180602001604052806000815250612337565b806123168461233f565b604051602001612327929190613aa4565b6040516020818303038152906040525b915050919050565b60606000821415612387576040518060400160405280600181526020017f3000000000000000000000000000000000000000000000000000000000000000815250905061249b565b600082905060005b600082146123b95780806123a290613f6c565b915050600a826123b291906143b4565b915061238f565b60008167ffffffffffffffff8111156123d5576123d4612f93565b5b6040519080825280601f01601f1916602001820160405280156124075781602001600182028036833780820191505090505b5090505b6000851461249457600182612420919061416b565b9150600a8561242f91906143e5565b603061243b919061419f565b60f81b81838151811061245157612450613f0e565b5b60200101907effffffffffffffffffffffffffffffffffffffffffffffffffffffffffffff1916908160001a905350600a8561248d91906143b4565b945061240b565b8093505050505b919050565b60606000825114156124c357604051806020016040528060008152509050612614565b60006040518060600160405280604081526020016146be60409139905060006003600285516124f2919061419f565b6124fc91906143b4565b60046125089190614416565b90506000602082612519919061419f565b67ffffffffffffffff81111561253257612531612f93565b5b6040519080825280601f01601f1916602001820160405280156125645781602001600182028036833780820191505090505b509050818152600183018586518101602084015b818310156125d3576003830192508251603f8160121c168501518253600182019150603f81600c1c168501518253600182019150603f8160061c168501518253600182019150603f8116850151825360018201915050612578565b6003895106600181146125ed57600281146125fd57612608565b613d3d60f01b6002830352612608565b603d60f81b60018303525b50505050508093505050505b919050565b612633828260405180602001604052806000815250612853565b5050565b61264082611a83565b61267f576040517f08c379a0000000000000000000000000000000000000000000000000000000008152600401612676906144e2565b60405180910390fd5b806006600084815260200190815260200160002090805190602001906126a6929190612b31565b505050565b6001816000016000828254019250508190555050565b505050565b505050565b60006126ec8473ffffffffffffffffffffffffffffffffffffffff166128ae565b15612846578373ffffffffffffffffffffffffffffffffffffffff1663150b7a02612715611aef565b8786866040518563ffffffff1660e01b81526004016127379493929190614557565b6020604051808303816000875af192505050801561277357506040513d601f19601f8201168201806040525081019061277091906145b8565b60015b6127f6573d80600081146127a3576040519150601f19603f3d011682016040523d82523d6000602084013e6127a8565b606091505b506000815114156127ee576040517f08c379a00000000000000000000000000000000000000000000000000000000081526004016127e5906142d3565b60405180910390fd5b805181602001fd5b63150b7a0260e01b7bffffffffffffffffffffffffffffffffffffffffffffffffffffffff1916817bffffffffffffffffffffffffffffffffffffffffffffffffffffffff19161491505061284b565b600190505b949350505050565b61285d83836128d1565b61286a60008484846126cb565b6128a9576040517f08c379a00000000000000000000000000000000000000000000000000000000081526004016128a0906142d3565b60405180910390fd5b505050565b6000808273ffffffffffffffffffffffffffffffffffffffff163b119050919050565b600073ffffffffffffffffffffffffffffffffffffffff168273ffffffffffffffffffffffffffffffffffffffff161415612941576040517f08c379a000000000000000000000000000000000000000000000000000000000815260040161293890614631565b60405180910390fd5b61294a81611a83565b1561298a576040517f08c379a00000000000000000000000000000000000000000000000000000000081526004016129819061469d565b60405180910390fd5b612996600083836126c1565b6001600360008473ffffffffffffffffffffffffffffffffffffffff1673ffffffffffffffffffffffffffffffffffffffff16815260200190815260200160002060008282546129e6919061419f565b92505081905550816002600083815260200190815260200160002060006101000a81548173ffffffffffffffffffffffffffffffffffffffff021916908373ffffffffffffffffffffffffffffffffffffffff160217905550808273ffffffffffffffffffffffffffffffffffffffff16600073ffffffffffffffffffffffffffffffffffffffff167fddf252ad1be2c89b69c2b068fc378daa952ba7f163c4a11628f55a4df523b3ef60405160405180910390a4612aa7600083836126c6565b5050565b828054612ab790613548565b90600052602060002090601f016020900481019282612ad95760008555612b20565b82601f10612af257803560ff1916838001178555612b20565b82800160010185558215612b20579182015b82811115612b1f578235825591602001919060010190612b04565b5b509050612b2d9190612bb7565b5090565b828054612b3d90613548565b90600052602060002090601f016020900481019282612b5f5760008555612ba6565b82601f10612b7857805160ff1916838001178555612ba6565b82800160010185558215612ba6579182015b82811115612ba5578251825591602001919060010190612b8a565b5b509050612bb39190612bb7565b5090565b5b80821115612bd0576000816000905550600101612bb8565b5090565b6000604051905090565b600080fd5b600080fd5b60007fffffffff0000000000000000000000000000000000000000000000000000000082169050919050565b612c1d81612be8565b8114612c2857600080fd5b50565b600081359050612c3a81612c14565b92915050565b600060208284031215612c5657612c55612bde565b5b6000612c6484828501612c2b565b91505092915050565b60008115159050919050565b612c8281612c6d565b82525050565b6000602082019050612c9d6000830184612c79565b92915050565b600081519050919050565b600082825260208201905092915050565b60005b83811015612cdd578082015181840152602081019050612cc2565b83811115612cec576000848401525b50505050565b6000601f19601f8301169050919050565b6000612d0e82612ca3565b612d188185612cae565b9350612d28818560208601612cbf565b612d3181612cf2565b840191505092915050565b60006020820190508181036000830152612d568184612d03565b905092915050565b6000819050919050565b612d7181612d5e565b8114612d7c57600080fd5b50565b600081359050612d8e81612d68565b92915050565b600060208284031215612daa57612da9612bde565b5b6000612db884828501612d7f565b91505092915050565b600073ffffffffffffffffffffffffffffffffffffffff82169050919050565b6000612dec82612dc1565b9050919050565b612dfc81612de1565b82525050565b6000602082019050612e176000830184612df3565b92915050565b612e2681612de1565b8114612e3157600080fd5b50565b600081359050612e4381612e1d565b92915050565b60008060408385031215612e6057612e5f612bde565b5b6000612e6e85828601612e34565b9250506020612e7f85828601612d7f565b9150509250929050565b600080fd5b600080fd5b600080fd5b60008083601f840112612eae57612ead612e89565b5b8235905067ffffffffffffffff811115612ecb57612eca612e8e565b5b602083019150836001820283011115612ee757612ee6612e93565b5b9250929050565b60008060208385031215612f0557612f04612bde565b5b600083013567ffffffffffffffff811115612f2357612f22612be3565b5b612f2f85828601612e98565b92509250509250929050565b600080600060608486031215612f5457612f53612bde565b5b6000612f6286828701612e34565b9350506020612f7386828701612e34565b9250506040612f8486828701612d7f565b9150509250925092565b600080fd5b7f4e487b7100000000000000000000000000000000000000000000000000000000600052604160045260246000fd5b612fcb82612cf2565b810181811067ffffffffffffffff82111715612fea57612fe9612f93565b5b80604052505050565b6000612ffd612bd4565b90506130098282612fc2565b919050565b600067ffffffffffffffff82111561302957613028612f93565b5b61303282612cf2565b9050602081019050919050565b82818337600083830152505050565b600061306161305c8461300e565b612ff3565b90508281526020810184848401111561307d5761307c612f8e565b5b61308884828561303f565b509392505050565b600082601f8301126130a5576130a4612e89565b5b81356130b584826020860161304e565b91505092915050565b6000602082840312156130d4576130d3612bde565b5b600082013567ffffffffffffffff8111156130f2576130f1612be3565b5b6130fe84828501613090565b91505092915050565b60006020828403121561311d5761311c612bde565b5b600061312b84828501612e34565b91505092915050565b61313d81612d5e565b82525050565b60006020820190506131586000830184613134565b92915050565b600061316982612dc1565b9050919050565b6131798161315e565b82525050565b60006020820190506131946000830184613170565b92915050565b6131a381612c6d565b81146131ae57600080fd5b50565b6000813590506131c08161319a565b92915050565b600080604083850312156131dd576131dc612bde565b5b60006131eb85828601612e34565b92505060206131fc858286016131b1565b9150509250929050565b600067ffffffffffffffff82111561322157613220612f93565b5b61322a82612cf2565b9050602081019050919050565b600061324a61324584613206565b612ff3565b90508281526020810184848401111561326657613265612f8e565b5b61327184828561303f565b509392505050565b600082601f83011261328e5761328d612e89565b5b813561329e848260208601613237565b91505092915050565b600080600080608085870312156132c1576132c0612bde565b5b60006132cf87828801612e34565b94505060206132e087828801612e34565b93505060406132f187828801612d7f565b925050606085013567ffffffffffffffff81111561331257613311612be3565b5b61331e87828801613279565b91505092959194509250565b6000806000806040858703121561334457613343612bde565b5b600085013567ffffffffffffffff81111561336257613361612be3565b5b61336e87828801612e98565b9450945050602085013567ffffffffffffffff81111561339157613390612be3565b5b61339d87828801612e98565b925092505092959194509250565b600080604083850312156133c2576133c1612bde565b5b60006133d085828601612e34565b92505060206133e185828601612e34565b9150509250929050565b600081519050919050565b600082825260208201905092915050565b6000819050602082019050919050565b600082825260208201905092915050565b600061343382612ca3565b61343d8185613417565b935061344d818560208601612cbf565b61345681612cf2565b840191505092915050565b600061346d8383613428565b905092915050565b6000602082019050919050565b600061348d826133eb565b61349781856133f6565b9350836020820285016134a985613407565b8060005b858110156134e557848403895281516134c68582613461565b94506134d183613475565b925060208a019950506001810190506134ad565b50829750879550505050505092915050565b600060208201905081810360008301526135118184613482565b905092915050565b7f4e487b7100000000000000000000000000000000000000000000000000000000600052602260045260246000fd5b6000600282049050600182168061356057607f821691505b6020821081141561357457613573613519565b5b50919050565b7f4552433732313a20617070726f76656420717565727920666f72206e6f6e657860008201527f697374656e7420746f6b656e0000000000000000000000000000000000000000602082015250565b60006135d6602c83612cae565b91506135e18261357a565b604082019050919050565b60006020820190508181036000830152613605816135c9565b9050919050565b7f4552433732313a20617070726f76616c20746f2063757272656e74206f776e6560008201527f7200000000000000000000000000000000000000000000000000000000000000602082015250565b6000613668602183612cae565b91506136738261360c565b604082019050919050565b600060208201905081810360008301526136978161365b565b9050919050565b7f4552433732313a20617070726f76652063616c6c6572206973206e6f74206f7760008201527f6e6572206e6f7220617070726f76656420666f7220616c6c0000000000000000602082015250565b60006136fa603883612cae565b91506137058261369e565b604082019050919050565b60006020820190508181036000830152613729816136ed565b9050919050565b600081905092915050565b60006137478385613730565b935061375483858461303f565b82840190509392505050565b600061376d82848661373b565b91508190509392505050565b7f4552433732313a207472616e736665722063616c6c6572206973206e6f74206f60008201527f776e6572206e6f7220617070726f766564000000000000000000000000000000602082015250565b60006137d5603183612cae565b91506137e082613779565b604082019050919050565b60006020820190508181036000830152613804816137c8565b9050919050565b600081905092915050565b50565b600061382660008361380b565b915061383182613816565b600082019050919050565b600061384782613819565b9150819050919050565b7f4661696c656420746f207769746864726177204d617469630000000000000000600082015250565b6000613887601883612cae565b915061389282613851565b602082019050919050565b600060208201905081810360008301526138b68161387a565b9050919050565b7f4552433732313a206f776e657220717565727920666f72206e6f6e657869737460008201527f656e7420746f6b656e0000000000000000000000000000000000000000000000602082015250565b6000613919602983612cae565b9150613924826138bd565b604082019050919050565b600060208201905081810360008301526139488161390c565b9050919050565b7f4552433732313a2062616c616e636520717565727920666f7220746865207a6560008201527f726f206164647265737300000000000000000000000000000000000000000000602082015250565b60006139ab602a83612cae565b91506139b68261394f565b604082019050919050565b600060208201905081810360008301526139da8161399e565b9050919050565b7f45524337323155524953746f726167653a2055524920717565727920666f722060008201527f6e6f6e6578697374656e7420746f6b656e000000000000000000000000000000602082015250565b6000613a3d603183612cae565b9150613a48826139e1565b604082019050919050565b60006020820190508181036000830152613a6c81613a30565b9050919050565b6000613a7e82612ca3565b613a888185613730565b9350613a98818560208601612cbf565b80840191505092915050565b6000613ab08285613a73565b9150613abc8284613a73565b91508190509392505050565b6000613ad48385612cae565b9350613ae183858461303f565b613aea83612cf2565b840190509392505050565b60006020820190508181036000830152613b10818486613ac8565b90509392505050565b7f4e6f7420656e6f756768204d6174696320706169640000000000000000000000600082015250565b6000613b4f601583612cae565b9150613b5a82613b19565b602082019050919050565b60006020820190508181036000830152613b7e81613b42565b9050919050565b7f2e00000000000000000000000000000000000000000000000000000000000000600082015250565b6000613bbb600183613730565b9150613bc682613b85565b600182019050919050565b60008190508160005260206000209050919050565b60008154613bf381613548565b613bfd8186613730565b94506001821660008114613c185760018114613c2957613c5c565b60ff19831686528186019350613c5c565b613c3285613bd1565b60005b83811015613c5457815481890152600182019150602081019050613c35565b838801955050505b50505092915050565b6000613c7282858761373b565b9150613c7d82613bae565b9150613c898284613be6565b9150819050949350505050565b6000613ca28286613be6565b9150613cae8285613a73565b9150613cba8284613be6565b9150819050949350505050565b7f7b226e616d65223a202200000000000000000000000000000000000000000000600082015250565b6000613cfd600a83613730565b9150613d0882613cc7565b600a82019050919050565b7f222c20226465736372697074696f6e223a20224120646f6d61696e206f6e207460008201527f6865204c7576204e616d652053657276696365222c2022696d616765223a202260208201527f646174613a696d6167652f7376672b786d6c3b6261736536342c000000000000604082015250565b6000613d95605a83613730565b9150613da082613d13565b605a82019050919050565b7f222c226c656e677468223a220000000000000000000000000000000000000000600082015250565b6000613de1600c83613730565b9150613dec82613dab565b600c82019050919050565b7f227d000000000000000000000000000000000000000000000000000000000000600082015250565b6000613e2d600283613730565b9150613e3882613df7565b600282019050919050565b6000613e4e82613cf0565b9150613e5a8286613a73565b9150613e6582613d88565b9150613e718285613a73565b9150613e7c82613dd4565b9150613e888284613a73565b9150613e9382613e20565b9150819050949350505050565b7f646174613a6170706c69636174696f6e2f6a736f6e3b6261736536342c000000600082015250565b6000613ed6601d83613730565b9150613ee182613ea0565b601d82019050919050565b6000613ef782613ec9565b9150613f038284613a73565b915081905092915050565b7f4e487b7100000000000000000000000000000000000000000000000000000000600052603260045260246000fd5b7f4e487b7100000000000000000000000000000000000000000000000000000000600052601160045260246000fd5b6000613f7782612d5e565b91507fffffffffffffffffffffffffffffffffffffffffffffffffffffffffffffffff821415613faa57613fa9613f3d565b5b600182019050919050565b7f4552433732313a206f70657261746f7220717565727920666f72206e6f6e657860008201527f697374656e7420746f6b656e0000000000000000000000000000000000000000602082015250565b6000614011602c83612cae565b915061401c82613fb5565b604082019050919050565b6000602082019050818103600083015261404081614004565b9050919050565b7f4552433732313a207472616e736665722066726f6d20696e636f72726563742060008201527f6f776e6572000000000000000000000000000000000000000000000000000000602082015250565b60006140a3602583612cae565b91506140ae82614047565b604082019050919050565b600060208201905081810360008301526140d281614096565b9050919050565b7f4552433732313a207472616e7366657220746f20746865207a65726f2061646460008201527f7265737300000000000000000000000000000000000000000000000000000000602082015250565b6000614135602483612cae565b9150614140826140d9565b604082019050919050565b6000602082019050818103600083015261416481614128565b9050919050565b600061417682612d5e565b915061418183612d5e565b92508282101561419457614193613f3d565b5b828203905092915050565b60006141aa82612d5e565b91506141b583612d5e565b9250827fffffffffffffffffffffffffffffffffffffffffffffffffffffffffffffffff038211156141ea576141e9613f3d565b5b828201905092915050565b7f4552433732313a20617070726f766520746f2063616c6c657200000000000000600082015250565b600061422b601983612cae565b9150614236826141f5565b602082019050919050565b6000602082019050818103600083015261425a8161421e565b9050919050565b7f4552433732313a207472616e7366657220746f206e6f6e20455243373231526560008201527f63656976657220696d706c656d656e7465720000000000000000000000000000602082015250565b60006142bd603283612cae565b91506142c882614261565b604082019050919050565b600060208201905081810360008301526142ec816142b0565b9050919050565b7f4552433732314d657461646174613a2055524920717565727920666f72206e6f60008201527f6e6578697374656e7420746f6b656e0000000000000000000000000000000000602082015250565b600061434f602f83612cae565b915061435a826142f3565b604082019050919050565b6000602082019050818103600083015261437e81614342565b9050919050565b7f4e487b7100000000000000000000000000000000000000000000000000000000600052601260045260246000fd5b60006143bf82612d5e565b91506143ca83612d5e565b9250826143da576143d9614385565b5b828204905092915050565b60006143f082612d5e565b91506143fb83612d5e565b92508261440b5761440a614385565b5b828206905092915050565b600061442182612d5e565b915061442c83612d5e565b9250817fffffffffffffffffffffffffffffffffffffffffffffffffffffffffffffffff048311821515161561446557614464613f3d565b5b828202905092915050565b7f45524337323155524953746f726167653a2055524920736574206f66206e6f6e60008201527f6578697374656e7420746f6b656e000000000000000000000000000000000000602082015250565b60006144cc602e83612cae565b91506144d782614470565b604082019050919050565b600060208201905081810360008301526144fb816144bf565b9050919050565b600081519050919050565b600082825260208201905092915050565b600061452982614502565b614533818561450d565b9350614543818560208601612cbf565b61454c81612cf2565b840191505092915050565b600060808201905061456c6000830187612df3565b6145796020830186612df3565b6145866040830185613134565b8181036060830152614598818461451e565b905095945050505050565b6000815190506145b281612c14565b92915050565b6000602082840312156145ce576145cd612bde565b5b60006145dc848285016145a3565b91505092915050565b7f4552433732313a206d696e7420746f20746865207a65726f2061646472657373600082015250565b600061461b602083612cae565b9150614626826145e5565b602082019050919050565b6000602082019050818103600083015261464a8161460e565b9050919050565b7f4552433732313a20746f6b656e20616c7265616479206d696e74656400000000600082015250565b6000614687601c83612cae565b915061469282614651565b602082019050919050565b600060208201905081810360008301526146b68161467a565b905091905056fe4142434445464748494a4b4c4d4e4f505152535455565758595a6162636465666768696a6b6c6d6e6f707172737475767778797a303132333435363738392b2fa2646970667358221220654ad0aa0423960c487ba90ee8e2ea5d8115cc4bd205e06d6258d851936c46b264736f6c634300080a00333c73766720786d6c6e733d22687474703a2f2f7777772e77332e6f72672f323030302f737667222077696474683d2232373022206865696768743d22323730222066696c6c3d226e6f6e65223e3c706174682066696c6c3d2275726c282361292220643d224d302030683237307632373048307a222f3e3c646566733e3c66696c7465722069643d22622220636f6c6f722d696e746572706f6c6174696f6e2d66696c746572733d2273524742222066696c746572556e6974733d227573657253706163654f6e55736522206865696768743d22323730222077696474683d22323730223e3c666544726f70536861646f772064783d2230222064793d22312220737464446576696174696f6e3d22322220666c6f6f642d6f7061636974793d222e323235222077696474683d223230302522206865696768743d2232303025222f3e3c2f66696c7465723e3c2f646566733e3c70617468207374796c653d2266696c6c3a236536346333632220643d224d342e3634352034352e3537376132352e3938362032352e3938362030203020312d2e3032392d312e31353463302d31332e3939372031312e3338372d32352e3338352032352e3338352d32352e3338357332352e3338352031312e3338372032352e3338352032352e3338356330202e3338372d2e3031322e3737312d2e30323920312e31353468342e363136632e3031322d2e3338342e3032372d2e3736372e3032372d312e31353420302d31362e3536392d31332e3433312d33302d33302d3330732d33302031332e3433312d33302033306330202e3338372e3031352e37372e30323920312e31353468342e3631367a222f3e3c70617468207374796c653d2266696c6c3a236630633431392220643d224d392e3238392034352e353737632d2e3032312d2e3338342d2e3035382d2e3736342d2e3035382d312e31353420302d31312e34353220392e3331372d32302e3736392032302e3736392d32302e3736397332302e37363920392e3331382032302e3736392032302e3736396330202e3338392d2e3033372e37372d2e30353820312e31353468342e363435632e3031372d2e3338332e3032392d2e3736372e3032392d312e31353420302d31332e3939372d31312e3338372d32352e3338352d32352e3338352d32352e33383553342e3631352033302e34323620342e3631352034342e3432336330202e3338372e3031322e3737312e30323920312e31353468342e3634357a222f3e3c70617468207374796c653d2266696c6c3a233731633238352220643d224d31332e3930352034352e353737632d2e3032372d2e3338332d2e3035382d2e3736342d2e3035382d312e31353420302d382e39303720372e3234362d31362e3135342031362e3135342d31362e3135347331362e31353420372e3234362031362e3135342031362e3135346330202e3338392d2e3033312e3737312d2e30353820312e31353468342e363135632e3032312d2e3338342e3035382d2e3736342e3035382d312e31353420302d31312e3435322d392e3331372d32302e3736392d32302e3736392d32302e373639732d32302e373720392e3331372d32302e37372032302e3736396330202e3338392e3033372e37372e30353820312e31353468342e3631367a222f3e3c70617468207374796c653d2266696c6c3a233030393665362220643d224d31382e35322034352e3537376131312e35382031312e35382030203020312d2e3035382d312e31353463302d362e33363220352e3137362d31312e3533382031312e3533382d31312e3533387331312e35333820352e3137372031312e3533382031312e3533386330202e3338392d2e3032312e3737342d2e30353820312e31353468342e363135632e3032372d2e3338332e3035382d2e3736342e3035382d312e31353420302d382e3930372d372e3234362d31362e3135342d31362e3135342d31362e313534732d31362e31353420372e3234362d31362e3135342031362e3135346330202e3338392e3033312e3737312e30353820312e31353468342e3631377a222f3e3c70617468207374796c653d2266696c6c3a233534366137392220643d224d32332e3138312034352e35373761362e38353920362e3835392030203020312d2e3130342d312e31353463302d332e38313820332e3130352d362e39323320362e3932332d362e39323373362e39323320332e31303520362e39323320362e3932336330202e3339342d2e3034312e3737382d2e31303420312e31353468342e363631632e3033382d2e33382e3035382d2e3736342e3035382d312e31353420302d362e3336322d352e3137362d31312e3533382d31312e3533382d31312e353338732d31312e35333820352e3137372d31312e3533382031312e3533386330202e3338392e3032312e3737342e30353820312e31353468342e3636317a222f3e3c646566733e3c6c696e6561724772616469656e742069643d2261222078313d2230222079313d2230222078323d22323730222079323d2232373022206772616469656e74556e6974733d227573657253706163654f6e557365223e3c73746f702073746f702d636f6c6f723d2223636235656565222f3e3c73746f70206f66667365743d2231222073746f702d636f6c6f723d2223306364376534222073746f702d6f7061636974793d222e3939222f3e3c2f6c696e6561724772616469656e743e3c2f646566733e3c7465787420783d2233322e352220793d223233312220666f6e742d73697a653d223237222066696c6c3d2223666666222066696c7465723d2275726c282362292220666f6e742d66616d696c793d22506c7573204a616b617274612053616e732c44656a6156752053616e732c4e6f746f20436f6c6f7220456d6f6a692c4170706c6520436f6c6f7220456d6f6a692c73616e732d73657269662220666f6e742d7765696768743d22626f6c64223e",
  "linkReferences": {},
  "deployedLinkReferences": {}
}